:10000000C4C10000EAC10000E8C10000E6C1000070
:10001000E4C10000E2C10000E0C10000DEC1000058
:10002000DCC10000DAC100000C94600C0C94D90C07
:10003000D4C10000D2C10000D0C10000CEC1000078
:10004000CCC10000CAC10000C8C10000C6C1000088
:10005000C4C10000C2C10000C0C100000C94BF0BAD
:10006000BCC10000BAC10000B8C10000B6C10000A8
:10007000B4C10000B2C10000B0C10000AEC10000B8
:10008000ACC10000AAC10000A8C10000A6C10000C8
:10009000A4C10000A2C10000A0C100009EC10000D8
:1000A0009CC100009AC1000098C10000250048755D
:1000B0006D656461642052656C61746976613A2093
:1000C000004572726F72206C6579656E646F20688E
:1000D000756D656461642100C2B0430054656D7044
:1000E000657261747572613A20004572726F722098
:1000F0006C6579656E646F2074656D70657261748E
:1001000075726121002D2D2D2D2D2D2D2D2D2D2D97
:100110002D2D2D2D2D2D2D2D2D2D2D2D2D2D2D2D0F
:100120002D2D2D2D2D2D2D2D2D0025005265736F7C
:100130006C7574696F6E3A20200025004D696E2041
:1001400056616C75653A2020200025004D617820AD
:1001500056616C75653A20202000556E6971756591
:100160002049443A20202000447269766572205666
:1001700065723A20200053656E736F722054797057
:10018000653A200048756D69646974792053656E1D
:10019000736F72002D2D2D2D2D2D2D2D2D2D2D2DEF
:1001A0002D2D2D2D2D2D2D2D2D2D2D2D2D2D2D2D7F
:1001B0002D2D2D2D2D2D2D2D00C2B04300526573F8
:1001C0006F6C7574696F6E3A202000C2B043004DA9
:1001D000696E2056616C75653A20202000C2B043DC
:1001E000004D61782056616C75653A2020200055DD
:1001F0006E697175652049443A2020200044726977
:10020000766572205665723A20200053656E736FD2
:100210007220547970653A200054656D7065726182
:10022000747572652053656E736F72002D2D2D2DC0
:100230002D2D2D2D2D2D2D2D2D2D2D2D2D2D2D2DEE
:100240002D2D2D2D2D2D2D2D2D2D2D2D2D2D2D2DDE
:1002500000444854787820556E6966696564205377
:10026000656E736F72204578616D706C6500012357
:1002700002230423082380230129022904290829B1
:100280004026802640298029102320234023802FC8
:10029000402F202F102F022F012F10292029402C12
:1002A0007DFD7DFB7DF77DEF7DDF7E7F7EBF7EDF89
:1002B0007EEF7EFD7EFE7DFE0001000069031200E0
:1002C0000200002603430003000022030401030987
:1002D0000408031802030904F0021603030904E2E8
:1002E000020C0C03310032003300340035000000F2
:1002F00016035500530042002000530065007200B1
:10030000690061006C00000018035400650065007E
:100310006E00730079006400750069006E006F0064
:1003200000000403090409024300020100C032096D
:10033000040000010202010005240010010524014F
:1003400000010424020605240600010705820308B3
:10035000004009040100020A0000000705030240F2
:1003600000000705840240000012010002020000A4
:1003700020C01683047102010203010001C10201C1
:100380008036018136000504381011241FBECFEFDE
:10039000DAE0DEBFCDBF11E0A0E0B1E0E2ECF4E2D4
:1003A00002C005900D92A235B107D9F721E0A2E570
:1003B000B1E001C01D92A439B207E1F711E0C5EC2C
:1003C000D1E004C02197FE010E948A10C33CD107EE
:1003D000C9F70E94200A0C945F1212CE089592C7AA
:1003E0000F931F93CF93DF93EC01FB01019000204B
:1003F000E9F73197AF01461B570BE881F98102807D
:10040000F381E02D09958C01CE01E9D6800F911F73
:10041000DF91CF911F910F9108950F931F93CF9369
:10042000DF93EC0189D68C01CE01D9D6800F911FC4
:10043000DF91CF911F910F9108950F931F93CF9349
:10044000DF93EC0152D78C01CE01C9D6800F911FEA
:10045000DF91CF911F910F9108950F931F93CF9329
:10046000DF93CDB7DEB7E0970FB6F894DEBF0FBECF
:10047000CDBF569A20982898219A299A40E05BE4AB
:1004800060E070E088E891E00E94D00F86E591E09E
:100490008FD261E572E088E891E0BFDF88E291E009
:1004A0009AA789A706E511E0F801868997899CA794
:1004B0008BA7808D918DA28DB38D8DA79EA7AFA7A1
:1004C000B8ABBE016F5F7F4FCE018996B7D26CE2A9
:1004D00072E088E891E0A1DF69E172E088E891E0EC
:1004E0009CDF6BE072E088E891E026D6BE016F5F8A
:1004F0007F4F88E891E074DF6DEF71E088E891E06C
:100500001BD64D855E856F85788988E891E095DFFB
:100510006FEE71E088E891E00FD649895A896B89BE
:100520007C8988E891E089DF61EE71E088E891E0FC
:1005300003D6498D5A8D6B8D7C8D22E030E088E8A2
:1005400091E04DDF6DED71E088E891E066DF6FECE2
:1005500071E088E891E0F0D54D8D5E8D6F8D78A1CA
:1005600022E030E088E891E03ADF6BEC71E088E867
:1005700091E053DF6DEB71E088E891E0DDD549A1B2
:100580005AA16BA17CA122E030E088E891E027DF4E
:1005900069EB71E088E891E040DF64E971E088E8A8
:1005A00091E03BDF86E391E09AA789A7F801868D69
:1005B000978D9CA78BA780A191A1A2A1B3A18DA784
:1005C0009EA7AFA7B8ABBE016F5F7F4FCE018996E4
:1005D000C6D264E871E088E891E01FDF66E771E069
:1005E00088E891E0A9D5BE016F5F7F4F88E891E070
:1005F000F7DE68E671E088E891E09ED54D855E857E
:100600006F85788988E891E018DF6AE571E088E80D
:1006100091E092D549895A896B897C8988E891E073
:100620000CDF6CE471E088E891E086D5498D5A8D45
:100630006B8D7C8D22E030E088E891E0D0DE6AE4CA
:1006400071E088E891E0E9DE6CE371E088E891E030
:1006500073D54D8D5E8D6F8D78A122E030E088E8F6
:1006600091E0BDDE6AE371E088E891E0D6DE6CE2FD
:1006700071E088E891E060D549A15AA16BA17CA105
:1006800022E030E088E891E0AADE6AE271E088E8E2
:1006900091E0C3DE65E071E088E891E0BEDE6DA127
:1006A0007EA18FA198A520ED37E040E050E00E94A8
:1006B0006E10209352013093530140935401509394
:1006C0005501E0960FB6F894DEBF0FBECDBFDF91A7
:1006D000CF911F910F910895CF93DF93CDB7DEB7E0
:1006E000AC970FB6F894DEBF0FBECDBF5E9A6AE03E
:1006F00070E080E090E00E94FF0B5E9866EC77E08F
:1007000080E090E00E94FF0B88E291E09EA38DA321
:1007100080916C0190916D0198A78FA380916E01DB
:1007200090916F01A0917001B091710189A79AA772
:10073000ABA7BCA7BE016F5F7F4FCE01859686D069
:100740006D897E898F89988D9B01AC010E943A1238
:10075000882319F06AEE70E010C06CED70E088E854
:1007600091E0EAD44D895E896F89788D22E030E08E
:1007700088E891E034DE68ED70E088E891E04DDED5
:1007800086E391E09EA38DA3809174019091750101
:1007900098A78FA38091760190917701A09178011D
:1007A000B091790189A79AA7ABA7BCA7BE016F5FDB
:1007B0007F4FCE01859687D06D897E898F89988DF0
:1007C0009B01AC010E943A12882319F061EC70E0A1
:1007D00010C06EEA70E088E891E0AED44D895E8981
:1007E0006F89788D22E030E088E891E0F8DD6CEAEE
:1007F00070E088E891E011DEAC960FB6F894DEBFA9
:100800000FBECDBFDF91CF910895AF92BF92CF922F
:10081000DF92EF92FF920F931F93AA24AA94BA2C0F
:100820006501EE24EA94FE2C870126E046E160E0B3
:1008300086E591E086D01F910F91FF90EF90DF90B9
:10084000CF90BF90AF90089508950895CF93DF9310
:10085000EB0124E2FB0111922A95E9F744E250E012
:1008600060E070E0488359836A837B83FC014481A4
:100870005581668177814C835D836E837F834DE0F4
:1008800050E060E070E0488759876A877B870FB641
:10089000F89440917D0150917E0160917F017091AB
:1008A00080010FBE488B598B6A8B7B8B40E060E0E8
:1008B0008281938165D36C8B7D8B8E8B9F8B81E046
:1008C000DF91CF910895CF93DF93EB0124E2FB01F9
:1008D00011922A95E9F744E250E060E070E0488325
:1008E00059836A837B83FC014481558166817781CA
:1008F0004C835D836E837F834CE050E060E070E06A
:10090000488759876A877B870FB6F89440917D01A5
:1009100050917E0160917F01709180010FBE488BE4
:10092000598B6A8B7B8B60E082819381BDD36C8B0A
:100930007D8B8E8B9F8B81E0DF91CF9108950DC6CB
:100940000CC64F925F926F927F929F92AF92BF922E
:10095000CF92DF92EF92FF920F931F93CF93DF938B
:10096000EC01942E78D19B8A88E291E09D8B8C8B50
:10097000DF8BCE8BE88EF98E0A8F1B8F86E391E09A
:100980009D8F8C8FDF8FCE8FA8A2B9A2CAA2DBA2C7
:10099000DF91CF911F910F91FF90EF90DF90CF905B
:1009A000BF90AF909F907F906F905F904F90089511
:1009B00067E370C1CF93DF93EB01FC0183898C3037
:1009C00089F038F48B30C1F44BE050E067E071E01F
:1009D00017C0853161F0863179F44BE050E069E170
:1009E00071E00EC04BE050E06DE071E009C04BE0FB
:1009F00050E063E171E004C04BE050E06FE171E072
:100A0000CE010E9450121B86DF91CF910895FB0109
:100A1000DC0153968C918C3041F038F48B3029F402
:100A200080E492E4AFE0B0E004C080E894E8AEE196
:100A3000B0E084A395A3A6A3B7A308950F931F9333
:100A4000CF93DF938C01EB0188E2DB011D928A9545
:100A5000E9F7F80182819381ADDF81E090E0A0E0C9
:100A6000B0E08C879D87AE87BF87F8018481958130
:100A7000A681B781888B998BAA8BBB8B8DE090E088
:100A8000A0E0B0E08C8B9D8BAE8BBF8BBE018281D2
:100A90009381BDDFD8011296ED91FC911397838964
:100AA0008C30F1F0A0F48B3009F048C080E090E089
:100AB000A8E4B2E4888F998FAA8FBB8F1C8E1D8EFD
:100AC0001E8E1F8E80E090E0A0E0B0E432C0853141
:100AD000E1F0863199F580E090E0AAEFB2E419C028
:100AE00080E090E0A0E7B2E4888F998FAA8FBB8F57
:100AF00080E090E0A0EAB1EC8C8F9D8FAE8FBF8F2D
:100B000080E090E0A0E0BFE314C080E090E0A0EAC5
:100B1000B2E4888F998FAA8FBB8F80E090E0A0E22B
:100B2000B2EC8C8F9D8FAE8FBF8F8DEC9CECACECBC
:100B3000BDE388A399A3AAA3BBA30CC0188E198EEA
:100B40001A8E1B8E1C8E1D8E1E8E1F8E18A219A231
:100B50001AA21BA2DF91CF911F910F9108950F93BD
:100B60001F93CF93DF938C01EB0188E2DB011D9291
:100B70008A95E9F7F801828193811CDF81E090E09A
:100B8000A0E0B0E08C879D87AE87BF87F8018481A5
:100B90009581A681B781888B998BAA8BBB8B8CE0C2
:100BA00090E0A0E0B0E08C8B9D8BAE8BBF8BBE0144
:100BB000828193812CDFD8011296ED91FC911397DD
:100BC00083898C3069F038F48B30A1F580E090E0B7
:100BD000A0EAB2E409C08531C1F08631B1F02AC083
:100BE00080E090E0AEEBB2E4888F998FAA8FBB8F44
:100BF00080E090E0A0EAB1E48C8F9D8FAE8FBF8F34
:100C000080E090E0A0EAB0E410C080E090E0A8ECC2
:100C1000B2E4888F998FAA8FBB8F1C8E1D8E1E8E7B
:100C20001F8E8DEC9CECACECBDE388A399A3AAA32A
:100C3000BBA30CC0188E198E1A8E1B8E1C8E1D8E97
:100C40001E8E1F8E18A219A21AA21BA2DF91CF918D
:100C50001F910F910895DC0115966C9315971696C8
:100C60004C931697E62FF0E0EE0FFF1FE259FD4F71
:100C7000E4911796EC93179718966C93189740E8A1
:100C80005EE360E070E01D964D935D936D937C9301
:100C9000509708951F93CF93DF93EC01162F8D810A
:100CA000BED40FB6F89480917D0190917E01A09101
:100CB0007F01B09180010FBE805D9740A109B1090D
:100CC00089879A87AB87BC871A8BDF91CF911F9159
:100CD0000895CF92DF92EF92FF921F93CF93DF930D
:100CE000DC0117961C911797662311F0912F01C014
:100CF00090E01896EC911897F0E0EE0FFF1FE15985
:100D0000FD4F20E030E0C491D0E088818123A9012B
:100D100060E070E0981312C02F5F3F4F1D96CD909A
:100D2000DD90ED90FC9050974C155D056E057F05AC
:100D300050F33FEF2FEF8FEF9FEF03C0322F252FA0
:100D4000CB01632F722FDF91CF911F91FF90EF9016
:100D5000DF90CF9008958F929F92AF92BF92CF92E3
:100D6000DF92EF92FF920F931F93CF93DF93CDB754
:100D7000DEB7C054D1400FB6F894DEBF0FBECDBF72
:100D8000262F0FB6F89440917D0150917E0160911D
:100D90007F01709180010FBE211117C0DC011996EF
:100DA0000D911D912D913C911C976A017B01C01AF8
:100DB000D10AE20AF30AA0EDCA16A7E0DA06E104B6
:100DC000F10418F4FC018189C7C08C01DC0119967B
:100DD0004D935D936D937C931C9714961C9214977E
:100DE00013961C92139712961C92129711961C92AE
:100DF00011971C9215968C9112D461E070E080E0FE
:100E000090E0FDD4F8018581F9D3D8011596EC91D5
:100E1000F0E02ED4F80186818551823028F480E3F9
:100E200091E10197F1F705C064E170E080E090E0A6
:100E3000E6D4D80115968C91F2D3F801828990E01E
:100E4000029738F031F0880F991F880F991F01978A
:100E5000F1F7F89460E0C8013CDF6F3F7F4F8F4FA0
:100E60009F4F29F4D80151961C92789446C061E0B6
:100E7000C8012FDF6F3F7F4F8F4F9F4F99F3FE01C8
:100E800031967F015E01FFEBAF1AFEEFBF0A6701EB
:100E900060E0C8011EDFD6016D937D938D939C9316
:100EA000139761E0C80115DFF601648375838683BB
:100EB0009783F8E0CF0ED11CCA14DB0449F778946D
:100EC00020E030E0D7018D909D90AD90BC901397BD
:100ED00014964D915D916D917C911797BFEF8B1694
:100EE0009B06AB06BB0631F04F3FEFEF5E076E0788
:100EF0007E0729F4D80151961C9280E02DC0F9019B
:100F000083E0F595E7958A95E1F7E00FF11F808181
:100F1000880F84169506A606B70608F481608083BC
:100F20002F5F3F4FB8E0EB0EF11C2832310551F630
:100F3000F801248130E04081818190E0840F911D8F
:100F40004281840F911D4381840F911D9927281799
:100F5000390781F681E0818BC05CDE4F0FB6F894D3
:100F6000DEBF0FBECDBFDF91CF911F910F91FF90DC
:100F7000EF90DF90CF90BF90AF909F908F900895AB
:100F8000CF92DF92EF92FF920F931F93CF93DF9355
:100F90008C01C62F642FDFDE882309F478C0F801A6
:100FA00086818C3009F445C018F48B30C9F06FC0CD
:100FB0008551823008F06BC0F801D2816D2F6F77B8
:100FC00070E0762F66278381682B80E090E00E9496
:100FD00025112DEC3CEC4CEC5DE30E94D71146C092
:100FE000F801628170E080E090E00E9425116B01C1
:100FF0007C01F801D381D7FF0AC09B01AC0160E0FE
:1010000070E080E89FEB0E9490106B017C016D2FD7
:101010006F7070E080E090E00E9427112DEC3CECB6
:101020004CEC5DE30E94D711A70196010E9491103C
:101030001FC0F801D28163816F7070E080E090E0A2
:101040000E9427112DEC3CEC4CEC5DE30E94D71183
:101050006B017C016D2F70E080E090E00E94251113
:101060009B01AC01C701B6010E949110D7FD9058B9
:10107000CC2389F026E636E646EE5FE30E94D711E0
:1010800020E030E040E052E40E94911004C060E0B3
:1010900070E080EC9FE7DF91CF911F910F91FF905F
:1010A000EF90DF90CF900895CF92DF92EF92FF9272
:1010B000CF93DF93EC014FDE882399F18E818B3043
:1010C00080F18D3098F08551823058F568817981B2
:1010D00076276727762780E090E00E9425112DEC87
:1010E0003CEC4CEC5DE30E94D7111FC0698170E0BD
:1010F00080E090E00E9427112DEC3CEC4CEC5DE38D
:101100000E94D7116B017C01688170E080E090E063
:101110000E9427119B01AC01C701B6010E949110EA
:1011200004C060E070E080EC9FE7DF91CF91FF901A
:10113000EF90DF90CF9008958F929F92AF92BF92E1
:10114000CF92DF92EF92FF920F931F93CF93DF9393
:10115000CDB7DEB7A0970FB6F894DEBF0FBECDBFF8
:101160004C016B01CB010E9447127C01A12CB12CD8
:10117000E114F10401F1870181E2E816F10410F0B5
:1011800000E210E0A801B601CE0101960E943E12D5
:10119000C00ED11EE01AF10AD401ED91FC9102803B
:1011A000F381E02DA801BE016F5F7F4FC401099557
:1011B000A80EB91EDDCFC501A0960FB6F894DEBF0C
:1011C0000FBECDBFDF91CF911F910F91FF90EF9098
:1011D000DF90CF90BF90AF909F908F900895CF9366
:1011E000DF9300D0CDB7DEB72DE029832AE02A8334
:1011F000DC01ED91FC910280F381E02D42E050E0B2
:10120000BE016F5F7F4F09950F900F90DF91CF91D7
:101210000895EF92FF920F931F93CF93DF93CDB773
:10122000DEB72B970FB6F894DEBF0FBECDBFA22F4F
:101230007E012CE0E20EF11C8A019B01E3E30E9F8C
:1012400000270E0E011DF02D1E9F1127000D111DF0
:101250002E9F2227100D211D3E9F3327200D311D6B
:101260001124F00F011F121F231F311DF10F021F48
:10127000131F211D311DF30F011D111D211D311DD6
:101280003695279517950795F795EAE0FE9FF12D7E
:101290001124B901A80130E33F0FF70132937F0118
:1012A000411551056105710509F0C6CFAA2319F052
:1012B0002DE222937F01AE014E195F09445F5F4F1B
:1012C000DC01ED91FC910280F381E02DB7010995DD
:1012D0002B960FB6F894DEBF0FBECDBFDF91CF9136
:1012E0001F910F91FF90EF90089577FF09C07095BF
:1012F0006095509541955F4F6F4F7F4F21E001C042
:1013000020E087CF4F925F926F927F928F929F9251
:10131000AF92BF92CF92DF92EF92FF920F931F9303
:10132000CF93DF93CDB7DEB728970FB6F894DEBF23
:101330000FBECDBF7C012A013B01D22E20E030E060
:10134000A901C301B20151D787FF06C077FA709493
:1013500077F8709401E001C000E010E060E070E018
:1013600080E09FE31D1541F02DEC3CEC4CEC5DE37F
:101370000E94D7111F5FF6CF9B01AC01C301B201E0
:10138000D0D62B013C0135D74B015C01202FAB019E
:10139000BC01C7013EDF6C01112309F439C0C5014E
:1013A000B40153D79B01AC01C301B201B9D62EE2FF
:1013B0002983183008F017E05E0122E0A20EB11C6C
:1013C000012F0150B8F020E030E040E251E4EFD7C7
:1013D0002B013C010ED780E3860FD5018D935D0173
:1013E00070E080E090E033D79B01AC01C301B20113
:1013F00097D6E7CF41E0410F50E0D701ED91FC9146
:101400000280F381E02DBE016F5F7F4FC701099518
:10141000C60128960FB6F894DEBF0FBECDBFDF9190
:10142000CF911F910F91FF90EF90DF90CF90BF90E1
:10143000AF909F908F907F906F905F904F900895A6
:10144000AED00BD849D9FECFCF93DF93009709F4E4
:1014500081C0FC01329713821282A0919201B09157
:101460009301109781F420813181820F931F209185
:101470007A0130917B012817390751F5F0937B01F0
:10148000E0937A0167C0ED0120E030E0CE17DF077E
:1014900040F44A815B819E0141155105F1F0EA015A
:1014A000F5CFD383C28340815181840F951FC81724
:1014B000D90759F488819981840F951F02969183E9
:1014C00080838A819B81938382832115310529F44E
:1014D000F0939301E09392013DC0E901FB83EA831D
:1014E00049915991C40FD51FEC17FD0761F4808114
:1014F0009181840F951F0296E901998388838281E7
:1015000093819B838A83E0E0F0E012968D919C9119
:101510001397009719F0FD01DC01F7CF8D919C9195
:1015200011979D012E5F3F4F820F931F20917A01EB
:1015300030917B012817390769F4309729F410920C
:1015400093011092920102C013821282B0937B0128
:10155000A0937A01DF91CF91089576CF1DBA1092B2
:1015600068001CBC10BE1FBA10927A0010926E0068
:1015700010926F0010927100109272001092C900C8
:10158000ECEBF0E0108214B817B81AB81DB810BA16
:10159000108215B818B81BB81EB811BA0895F8947F
:1015A000E1E6F0E020E82083108283E084BD85BD81
:1015B000EEE6F0E080818160808381E080938000AE
:1015C00092E090938100809390009093910090938B
:1015D000C00094E09093C1008093C2008093C30048
:1015E0001092C40086E880937A0020937B001092CA
:1015F0007E0010927D0042D178940895893170F474
:10160000EEE6F2E0880FE80FF11D2591E491F0E09D
:101610009FB7F8948181822B81839FBF0895893180
:1016200030F595EF980F9C3048F4E0EAF2E0990F1E
:10163000E90FF11DA591B0E0959103C09FEFA0E0E7
:10164000B0E0EEE6F2E0880FE80FF11D3591E4918D
:10165000F0E04FB7F8942181832F809528232183D0
:101660008281832B8283EC919E239C934FBF0895AC
:10167000E93120F4EE0FE15CF44F099408952898C5
:101680000895299808952A9808952B9808952F98D9
:1016900038C0589826C0599808955A9808955B986C
:1016A0000895469834C0479838C05E9808955F986A
:1016B0003AC02C9808952D9818C02E981CC08F9869
:1016C00008958E9808958D9808958C980895899816
:1016D0000895889808955C9808955D98089576987F
:1016E0000895E4B5EF7DE4BD0895E0918000EF77C3
:1016F000E09380000895E0918000EF7DE09380000A
:101700000895E0918000E77FE09380000895E091E4
:101710009000EF77E09390000895E091C000EF779C
:10172000E093C0000895E091C200E77FE093C2001B
:101730000895F89484B7877F84BF809160008061AA
:10174000809360001092600080E29EE40197F1F7C0
:1017500081E08093E00080E28093D80080E69AEEFA
:101760000197F1F7FBDE0C94003FFFCFF894F6DE13
:1017700080E69AEE0197F1F70C940000FFCF8F936B
:101780008FB78F9380917C018D5F8D37D0F48093DC
:101790007C0180917D018F5F80937D01D8F08091E5
:1017A0007E018F4F80937E01A8F080917F018F4F43
:1017B00080937F0178F0809180018F4F809380012A
:1017C00009C08D5780937C0180917D018E5F80934D
:1017D0007D0128F7809181018C5F8093810158F011
:1017E000809182018F4F8093820128F08091830144
:1017F0008F4F809383018F918FBF8F911895CF92D8
:10180000DF92EF92FF926B017C0119D09B01C11412
:10181000D104E104F10471F012D0621B730B683E35
:101820007340A8F381E0C81AD108E108F1082851F3
:101830003C4FEDCFFF90EF90DF90CF9008950FB623
:10184000F89466B515B270918101809182019091F2
:1018500083010FBE10FE05C06F3F19F07C5F8F4FF4
:101860009F4F11240024660F001C660F001C702976
:1018700008958091E80080FFFCCF08958091D80002
:1018800087FF02C085FF1BC081E08093D70080EAFC
:101890008093D80082E189BD09B400FEFDCF80E9C4
:1018A0008093D8001092E00010929601109295015A
:1018B000109294011092E1008DE08093E20008956F
:1018C0001F920F920FB60F9211242F933F934F93B5
:1018D0005F936F937F938F939F93AF93BF93EF9398
:1018E000FF939091E1001092E10093FF11C01092DC
:1018F000E90081E08093EB001092EC0082E280939B
:10190000ED0088E08093F00010929601109294010F
:1019100092FF1DC0809196018823C9F080918701B4
:10192000882359F0815080938701811106C084E09B
:101930008093E9008AE38093E80080918601882300
:1019400031F0815080938601811101C0F2DE90FF59
:101950000CC080E18093E2001092960181E08093B8
:10196000950180EA8093D80019BC80919501882365
:1019700079F094FF0DC082E189BD09B400FEFDCF6E
:1019800080E98093D8008DE08093E2001092950169
:10199000FF91EF91BF91AF919F918F917F916F9147
:1019A0005F914F913F912F910F900FBE0F901F901D
:1019B00018951F920F920FB60F921124EF92FF927B
:1019C0000F931F932F933F934F935F936F937F9347
:1019D0008F939F93AF93BF93CF93EF93FF93109207
:1019E000E9008091E80083FF31C1C091F10080914E
:1019F000F1000091F1001091F100E090F100F09001
:101A0000F1004091F1005091F10092EF9093E800C5
:101A1000863009F03FC086E0E8EBF2E02591359191
:101A20000217130711F0359615C025913591E2166E
:101A3000F30611F033960EC02591359184914F3FF6
:101A4000510519F010F04FEF50E0481708F4842FBB
:101A50005EEF08C0815011F7F9C0891B5093E80070
:101A60008823A9F09091E800492F4570D9F392FDA1
:101A7000F0C0982F813208F090E2492F442369F397
:101A8000F90125912093F1009F014150F7CF903249
:101A900049F3DFC0853041F48EEF8093E800E9DE42
:101AA00000680093E300D5C0893001F5C111CEC0B4
:101AB0000093960110929401109287018EEF80930B
:101AC000E80081E0EBE7F3E08093E90095919093E3
:101AD000EB00992331F095919093EC0095919093C0
:101AE000ED008F5F853081F78EE1ABC0883049F41F
:101AF000C03809F0ABC0BDDE809196018093F10043
:101B00007EC0813279F4C13A09F0A0C0B2DEE0E0D3
:101B1000F1E080818093F100319681E0E730F807B1
:101B2000C1F76DC0803209F047C0C13209F08EC0E4
:101B30008091E80082FFFCCFE0E0F1E08091F100CD
:101B40008083319681E0E730F807C1F78BEF80930F
:101B5000E8008EEF8093E800309100014091010190
:101B6000809102012091030190E0A0E0B0E0DC014F
:101B700099278827942B832BB22B86389105A105B2
:101B8000B10521F48FE08093860163C08639910509
:101B9000A105B10509F05DC084E08093E9009FEFE5
:101BA0008091EE00837039F09093E8008091E80016
:101BB00082FDFCCFF5CFDADD823231F4C13209F09B
:101BC00045C00093940105C0833229F4C13209F065
:101BD0003DC04FDE14C0811116C04BDEC23851F437
:101BE000E092E9008091EB0085FB882780F9109254
:101BF000E90001C080E08093F1001092F1008EEFC7
:101C00008093E80026C0982F9D7F9130F9F4C23070
:101C1000E9F4012BD9F4CE2DCF779FEF9C0F9630AE
:101C2000A8F49EEF9093E800C093E900833071F030
:101C300089E18093EB0081E090E001C0880FCA95B4
:101C4000EAF78093EA001092EA0003C081E28093F1
:101C5000EB00FF91EF91CF91BF91AF919F918F9149
:101C60007F916F915F914F913F912F911F910F91B4
:101C7000FF90EF900F900FBE0F901F901895CF938D
:101C8000DF931F92CDB7DEB76983DC01ED91FC9144
:101C90000280F381E02D41E050E0BE016F5F7F4F95
:101CA00009950F90DF91CF910895FC018FB7F894BB
:101CB00090919601911102C090E010C093E0909332
:101CC000E9009091F200911109C02091E80022FFF3
:101CD000F3CF25FDF1CF2BE62093E8008FBF2085C1
:101CE000318537FD03C09F3F09F09F5F892F90E04A
:101CF0000895CF93DF93EC018885998597FF09C0FC
:101D0000E881F9810284F385E02DCE010995998758
:101D1000888788859985DF91CF910895FC0120857A
:101D2000318537FD07C04FEF5FEF51874087C9010D
:101D3000992708959FB7F89480919601882369F0B8
:101D400083E08093E9002BE68091E80085FD09C0DF
:101D500082FF03C02093E800F7CF9FBF8FEF9FEF74
:101D600008958091F1002091E80025FD03C02BE645
:101D70002093E8009FBF90E008958091960188230A
:101D800061F08FB7F89494E09093E9009091F2009D
:101D90008FBF80E4891B90E0089580E090E0089573
:101DA000BF92CF92DF92EF92FF920F931F93CF9348
:101DB000DF937C0180919601882371F02FB7F8940E
:101DC00084E08093E90080918501882369F0809107
:101DD000E80085FD07C02FBF81E0F701828300E0A6
:101DE00010E0D3C01092850100E010E084E0D82E0E
:101DF00090E4C92EA1EFB0E03AE3B32E33E04115F1
:101E0000510509F4C1C08091E400815F9091E80020
:101E100095FD16C02FBF9091E400891304C081E0A6
:101E20008093850105C090919601911104C081E0D5
:101E3000F7018283AAC02FB7F894D092E900E6CFC9
:101E40008091F2009C2D981BE92FF0E04E175F0760
:101E500008F4942FE92FF0E04E1B5F0B0E0F1F1FAD
:101E6000EB01E0E4E91BE03428F4EE0FFF27E55C2A
:101E7000F04F099480C099919C9399919C9399916A
:101E80009C9399919C9399919C9399919C939991EE
:101E90009C9399919C9399919C9399919C939991DE
:101EA0009C9399919C9399919C9399919C939991CE
:101EB0009C9399919C9399919C9399919C939991BE
:101EC0009C9399919C9399919C9399919C939991AE
:101ED0009C9399919C9399919C9399919C9399919E
:101EE0009C9399919C9399919C9399919C9399918E
:101EF0009C9399919C9399919C9399919C9399917E
:101F00009C9399919C9399919C9399919C9399916D
:101F10009C9399919C9399919C9399919C9399915D
:101F20009C9399919C9399919C9399919C9399914D
:101F30009C9399919C9399919C9399919C9399913D
:101F40009C9399919C9399919C9399919C9399912D
:101F50009C9399919C9399919C9399919C9399911D
:101F60009C9399919C9399919C9399919C9399910D
:101F70009C9399919C93BE018091E80085FFB0925B
:101F8000E800309387013BCF2FBFC801DF91CF918D
:101F90001F910F91FF90EF90DF90CF90BF90089529
:101FA0002FEF3FEFFC013187208768DC0FB6F894F4
:101FB00080917D0190917E01A0917F01B09180017F
:101FC0000FBE9C0180919601882329F068EC70E097
:101FD00080E090E014CC80919501882309F10FB640
:101FE000F89480917D0190917E01A0917F01B09144
:101FF00080010FBEAC0180919501882389F00FB656
:10200000F89480917D0190917E01A0917F01B09123
:1020100080010FBE841B950B8B3F910560F30895E3
:102020000FB6F89480917D0190917E01A0917F017F
:10203000B09180010FBE821B930B853C994008F440
:10204000C1CF08959FB7F89480919601882321F01D
:1020500080918701811102C09FBF089584E0809321
:10206000E9008AE38093E80010928701F5CFEACF78
:10207000E8E8F1E08AE0DF011D928A95E9F788EE51
:1020800093E0A0E0B0E083839483A583B68384E4E7
:1020900091E0918380830895A1E21A2EAA1BBB1BB5
:1020A000FD010DC0AA1FBB1FEE1FFF1FA217B30724
:1020B000E407F50720F0A21BB30BE40BF50B661F3A
:1020C000771F881F991F1A9469F7609570958095FE
:1020D00090959B01AC01BD01CF010895052E97FBA2
:1020E00016F400940FD057FD05D0D6DF07FC02D0C0
:1020F00046F408C050954095309521953F4F4F4F7D
:102100005F4F089590958095709561957F4F8F4FA3
:102110009F4F0895EE0FFF1F0590F491E02D099455
:102120005058BB27AA270ED008C1F9D030F0FED0F6
:1021300020F031F49F3F11F41EF4EEC00EF4E09550
:10214000E7FBE4C0E92F0AD180F3BA1762077307EF
:102150008407950718F071F49EF522C10EF4E095FE
:102160000B2EBA2FA02D0B01B90190010C01CA0151
:10217000A0011124FF27591B99F0593F50F4503EFC
:1021800068F11A16F040A22F232F342F4427585FEE
:10219000F3CF469537952795A795F0405395C9F706
:1021A0007EF41F16BA0B620B730B840BBAF09150BE
:1021B000A1F0FF0FBB1F661F771F881FC2F70EC05D
:1021C000BA0F621F731F841F48F487957795679530
:1021D000B795F7959E3F08F0B3CF9395880F08F019
:1021E0009927EE0F9795879508956CD008F481E0B4
:1021F0000895BCD088F09F5790F0B92F9927B75118
:10220000A0F0D1F0660F771F881F991F1AF0BA95BA
:10221000C9F712C0B13081F0C3D0B1E00895C0C099
:10222000672F782F8827B85F39F0B93FCCF38695B0
:1022300077956795B395D9F73EF49095809570950D
:1022400061957F4F8F4F9F4F0895E89409C097FB8A
:102250003EF490958095709561957F4F8F4F9F4F7D
:102260009923A9F0F92F96E9BB279395F6958795C1
:1022700077956795B795F111F8CFFAF4BB0F11F484
:1022800060FF1BC06F5F7F4F8F4F9F4F16C088232B
:1022900011F096E911C0772321F09EE8872F762F61
:1022A00005C0662371F096E8862F70E060E02AF0A2
:1022B0009A95660F771F881FDAF7880F969587958E
:1022C00097F90895990F0008550FAA0BE0E8FEEF63
:1022D00016161706E807F907C0F012161306E407EA
:1022E000F50798F0621B730B840B950B39F40A26E3
:1022F00061F0232B242B252B21F408950A2609F4C1
:10230000A140A6958FEF811D811D089597F99F67C4
:1023100080E870E060E008959FEF80EC089500246D
:102320000A941616170618060906089500240A943A
:1023300012161306140605060895092E0394000CC0
:1023400011F4882352F0BB0F40F4BF2B11F460FF4F
:1023500004C06F5F7F4F8F4F9F4F089557FD905878
:10236000440F551F59F05F3F71F04795880F97FB59
:10237000991F61F09F3F79F0879508951216130613
:102380001406551FF2CF4695F1DF08C01616170642
:102390001806991FF1CF8695710561050894089577
:1023A000E894BB2766277727CB0197F908950BD0D0
:1023B000C4CFB5DF28F0BADF18F0952309F0A6CF17
:1023C000ABCF1124EECFCADFA0F3959FD1F3950FC9
:1023D00050E0551F629FF001729FBB27F00DB11DA9
:1023E000639FAA27F00DB11DAA1F649F6627B00D39
:1023F000A11D661F829F2227B00DA11D621F739F22
:10240000B00DA11D621F839FA00D611D221F749F2F
:102410003327A00D611D231F849F600D211D822F76
:10242000762F6A2F11249F5750408AF0E1F08823BD
:102430004AF0EE0FFF1FBB1F661F771F881F9150CA
:102440005040A9F79E3F510570F060CFAACF5F3F83
:10245000ECF3983EDCF3869577956795B795F795FD
:10246000E7959F5FC1F7FE2B880F911D9695879585
:1024700097F9089527DF880B990B0895FB01DC017C
:1024800002C005900D9241505040D8F70895FC01CC
:1024900005900020E9F7809590958E0F9F1F089575
:1024A000FB01DC014150504048F001900D920020AA
:1024B000C9F701C01D9241505040E0F70895F894CB
:0224C000FFCF4C
:1024C20000E10000000008444854313100444854FF
:1024D20031320044485432310044485432320044CC
:1024E20048543F00000000002504A004EE01260429
:1024F2001E050000000024049F04EE016304AF05E2
:10250200000000003F0ED00EBD0E3710550E8E0E8D
:02251200790E40
:00000001FF
