:10000000BCC00000D5C00000D3C00000D1C00000BB
:10001000CFC00000CDC00000CBC00000C9C00000B0
:10002000C7C00000C5C00000EDC1000064C20000F0
:10003000BFC00000BDC00000BBC00000B9C00000D0
:10004000B7C00000B5C00000B3C00000B1C00000E0
:10005000AFC00000ADC00000ABC0000032C1000066
:10006000A7C00000A5C00000A3C00000A1C0000000
:100070009FC000009DC000009BC0000099C0000010
:1000800097C0000095C0000093C0000091C0000020
:100090008FC000008DC000008BC0000089C0000030
:1000A00087C0000085C0000083C000000001000080
:1000B0005D0112000200001A014300030000160156
:1000C0000401030904FC001802030904E4001603F8
:1000D000030904D6000C0C03310032003300340055
:1000E0003500000016035500530042002000530065
:1000F00065007200690061006C0000001803540084
:10010000650065006E007300790064007500690089
:100110006E006F000000040309040902430002019D
:1001200000C0320904000001020201000524001091
:10013000010524010001042402060524060001072C
:1001400005820308004009040100020A00000007BC
:100150000503024000000705840240000012010070
:100160000202000020C01683047102010203010094
:1001700001C1020180360181360011241FBECFEF7C
:10018000DAE0DEBFCDBF11E0A0E0B1E0E6ECF7E0E1
:1001900002C005900D92A830B107D9F721E0A8E080
:1001A000B1E001C01D92A331B207E1F710D009C33D
:1001B00027CF569A08955E9A6AE070E080E090E05A
:1001C000C0D05E986EED73E080E090E0BAC024D0BD
:1001D000F0DFF1DFFECF1DBA109268001CBC10BE2C
:1001E0001FBA10927A0010926E0010926F00109257
:1001F0007100109272001092C900ECEBF0E01082D6
:1002000014B817B81AB81DB810BA108215B818B8B3
:100210001BB81EB811BA0895F894E1E6F0E020E8A2
:100220002083108283E084BD85BDEEE6F0E080810E
:100230008160808381E08093800092E090938100D0
:1002400080939000909391009093C00094E09093DD
:10025000C1008093C2008093C3001092C40086E85E
:1002600080937A0020937B0010927E0010927D0094
:10027000A7D078940895F89484B7877F84BF80913D
:1002800060008061809360001092600080E29EE4D4
:100290000197F1F781E08093E00080E28093D8003D
:1002A00080E69AEE0197F1F796DF0C94003FFFCFBE
:1002B000F89491DF80E69AEE0197F1F70C94000034
:1002C000FFCF8F938FB78F93809108018D5F8D370C
:1002D000D0F480930801809109018F5F8093090118
:1002E000D8F080910A018F4F80930A01A8F0809185
:1002F0000B018F4F80930B0178F080910C018F4F91
:1003000080930C0109C08D578093080180910901E9
:100310008E5F8093090128F780910D018C5F809397
:100320000D0158F080910E018F4F80930E0128F03F
:1003300080910F018F4F80930F018F918FBF8F910D
:100340001895CF92DF92EF92FF926B017C0119D04A
:100350009B01C114D104E104F10471F012D0621BBD
:10036000730B683E7340A8F381E0C81AD108E10816
:10037000F10828513C4FEDCFFF90EF90DF90CF90E8
:1003800008950FB6F89466B515B270910D0180917D
:100390000E0190910F010FBE10FE05C06F3F19F0C6
:1003A0007C5F8F4F9F4F11240024660F001C660F47
:1003B000001C702908958091E80080FFFCCF08950B
:1003C0008091D80087FF02C085FF1BC081E0809329
:1003D000D70080EA8093D80082E189BD09B400FE8D
:1003E000FDCF80E98093D8001092E00010921501B3
:1003F00010921401109213011092E1008DE080938D
:10040000E20008951F920F920FB60F9211242F93BE
:100410003F934F935F936F937F938F939F93AF938C
:10042000BF93EF93FF939091E1001092E10093FF4F
:1004300011C01092E90081E08093EB001092EC0073
:1004400082E28093ED0088E08093F0001092150125
:100450001092130192FF1DC0809115018823C9F0ED
:1004600080911201882359F08150809312018111EB
:1004700006C084E08093E9008AE38093E8008091DD
:100480001101882331F0815080931101811101C045
:10049000F2DE90FF0CC080E18093E2001092150123
:1004A00081E08093140180EA8093D80019BC809188
:1004B0001401882379F094FF0DC082E189BD09B44D
:1004C00000FEFDCF80E98093D8008DE08093E200AC
:1004D00010921401FF91EF91BF91AF919F918F9175
:1004E0007F916F915F914F913F912F910F900FBE30
:1004F0000F901F9018951F920F920FB60F92112414
:10050000EF92FF920F931F932F933F934F935F931D
:100510006F937F938F939F93AF93BF93CF93EF93FB
:10052000FF931092E9008091E80083FF31C1C091F0
:10053000F1008091F1000091F1001091F100E09044
:10054000F100F090F1004091F1005091F10092EF34
:100550009093E800863009F03FC086E0ECEAF0E0D6
:10056000259135910217130711F0359615C0259185
:100570003591E216F30611F033960EC025913591B0
:1005800084914F3F510519F010F04FEF50E048179C
:1005900008F4842F5EEF08C0815011F7F9C0891B61
:1005A0005093E8008823A9F09091E800492F457006
:1005B000D9F392FDF0C0982F813208F090E2492FD4
:1005C000442369F3F90125912093F1009F014150E3
:1005D000F7CF903249F3DFC0853041F48EEF80933E
:1005E000E800E9DE00680093E300D5C0893001F53A
:1005F000C111CEC000931501109213011092120187
:100600008EEF8093E80081E0EFE6F1E08093E9006F
:1006100095919093EB00992331F095919093EC0094
:1006200095919093ED008F5F853081F78EE1ABC09F
:10063000883049F4C03809F0ABC0BDDE80911501A7
:100640008093F1007EC0813279F4C13A09F0A0C0F4
:10065000B2DEE0E0F1E080818093F100319681E04C
:10066000E730F807C1F76DC0803209F047C0C132EA
:1006700009F08EC08091E80082FFFCCFE0E0F1E05D
:100680008091F1008083319681E0E730F807C1F76F
:100690008BEF8093E8008EEF8093E80030910001AB
:1006A00040910101809102012091030190E0A0E0BE
:1006B000B0E0DC0199278827942B832BB22B863856
:1006C0009105A105B10521F48FE08093110163C06C
:1006D00086399105A105B10509F05DC084E08093DC
:1006E000E9009FEF8091EE00837039F09093E8006D
:1006F0008091E80082FDFCCFF5CFDADD823231F463
:10070000C13209F045C00093130105C0833229F4BA
:10071000C13209F03DC04FDE14C0811116C04BDE5E
:10072000C23851F4E092E9008091EB0085FB882704
:1007300080F91092E90001C080E08093F1001092EE
:10074000F1008EEF8093E80026C0982F9D7F9130B6
:10075000F9F4C230E9F4012BD9F4CE2DCF779FEF15
:100760009C0F9630A8F49EEF9093E800C093E900A8
:10077000833071F089E18093EB0081E090E001C06B
:10078000880FCA95EAF78093EA001092EA0003C046
:1007900081E28093EB00FF91EF91CF91BF91AF91F8
:1007A0009F918F917F916F915F914F913F912F9189
:1007B0001F910F91FF90EF900F900FBE0F901F9021
:0607C0001895F894FFCF2C
:0807C60000E100000000080042
:00000001FF
